:20000000003C0120CD6B010039FB021039FB021039FB021039FB021039FB021039FB0210A6
:1C00200039FB021039FB021039FB021039FB021039FB021039FB021011FB021002
:2000D0002DE9F04FADF1640D05F0AAFAA9490BA80A68097902604FF0000B01710BAA4FF464
:2000F0007A708DF830B00521089058460CF0A0FD0120042108AA0CF09BFD089813F022F863
:200110009E4C9D4804F1CE01133801F152020E90A1F1CD000F90C5481092B23900F1100A6A
:2001300004F5907012910AF10F027838139004F1A80020381490BE481192D9461590D84690
:200150001690606859464FF040424FF0FF331CF061FB0028F5D0584609900DA909AA0AA8A9
:2001700016F0C6F8ADA10028179140F016839DF828000DF12A0119F035FC002840F00A83BF
:20019000BDF82A00ADF828001AF04EFEBDF82800102840F0FD8220789DF83410884240F01E
:2001B000F782099D28884FF6FF71814200F0F0822878913800F0DC811F3800F09F81203811
:2001D00040F0E682A8786278002800F0D980401F65D0401E24D0401E00F08981083800F09E
:2001F0008181801E40F0D482A888ADF81400A87B8DF81E006F8977B9E888ADF81600288916
:20021000ADF81A700126ADF81800A8898DF81F60ADF81C0001E08DF81FB0B74905AA62E19E
:2002300058465F46179E009040F22941019701220297B8A30397304604970FF00FFBBF491F
:2002500010200AF00DFF0090584640F22A41019001220297B5A30397304604970FF0FEFA46
:20027000AD8828461AF088FC022880F29182BF4F810001EBC001C9194868071C0BD01BF0B7
:2002900063FE10B138461CF0C1FA38461CF0BAFA384619F029F9284617F040FE78E2A74903
:2002B00010200AF0DDFE69785F465E4600915B460190012202974FF480610396179804937D
:2002D000BBA30FF0CBFA6F78002F43D16F895846A64A0C2110FB01F113468E18595A4FF61B
:2002F000FF738B4204D0401CC0B20228F0DB0DE0378024201BF0EEFD706028B1C04941F255
:2003100070723B4617F07AFB012070721A4A0120009006211323281D13F072FA16485F46C2
:200330005E465B4600905A46019740F20D41029617980393BCA3049201220FF08FFAA0699A
:20035000012807D16A89C349102001230AF088FEC4F818B0794910200AF082FE022880F02F
:20037000178258460090BA4962785B4610200AF077FE0DE280E80100011C0020201B002099
:200390006F78002F40F00482A8798DF81400E8798DF81500287A8DF818B08DF817B08DF80C
:2003B0001600E87A8DF81B00A87AB6498DF81A00687A05AF01268DF81900AD1D3A687868AE
:2003D0000A6013234860062128460E9A009613F017FAAD485F465D465E4600905B46019734
:2003F0004FF46E7102960122039517980493B3A30FF034FABE4B0F98BB49BC4A0090102035
:200410000AF02EFEC7B20FB11BF053F810985946202214F0A6F858460EE0C046626C655FC8
:20043000637573746F6D2E6300C046C0E430002040E201008018C0B20F2813DA1AF8002003
:20045000401CC0B20AEB00010B78092B18BF082BF0D11F2A2EBF1E22521ED2B21098491CCF
:2004700012F074F9B1485F4600905B46019740F2C73102960122039517980493B8A30FF079
:20049000EDF90F200090BF49CDF804A062785B4610200AF0E5FDC7B20FB11BF00AF8122037
:2004B000119F0090B74901976278012310200AF0D7FDC7B20FB11AF0FCFF6278C549102002
:2004D00092230AF0CDFD58460090614962785B4610200AF0C5FDC7B2002F00F059811AF0D8
:2004F000E8FF55E1BA4910200AF0BAFD50E128460DF032F94CE1C046D957011028797E2869
:200510001ED07F282BD12846008940F2F9210122BEA31AE044657669636520446973636F17
:200530006E6E65637465642100C046C04E756D20436F6E6E733A20256400C0469D86010085
:20055000287A4FF43D710322B4A300905F4601975E4602960397179804960FF07FF9297977
:2005700005F108001CF04AF912E1C046281C002068780E3800F0BE80401E6DD0401E00F084
:2005900003812E3840F00481A8780C2840F00081EF78002F36D1E879012823D0022808BF9C
:2005B000C9A020D003280CBFC8A0CAA01BE0C0464C696E6B2065737461626C697368206517
:2005D00076656E742C20737461747573203078253032782E204E756D20436F6E6E733A209E
:2005F000256400C0C3A0009058465F465E4601905A46029740F296410396BFA304920DE077
:20061000C7A9010058465F4600905E4601975A46029640F28D410392C8A3049717980122A5
:200630000FF01CF90C2044E0436F6E6E65637465642E205065657220616464726573733A99
:20065000201B5B33326D25731B5B306D00C046C0ED740110F9430100A88842F232018142A8
:2006700040F09680A8781A2810D0009058465F465E4601905A46029740F275410396C4A3B9
:20069000049210E09F2A0020EE1B002058465F4600905E4601975B4602964FF48E610393A2
:2006B000C3A3CDF81090179801220FF0D7F842F23200294611F070FE6AE0C0464741502033
:2006D000697320737461727465642E204F757220616464726573733A201B5B33326D257353
:2006F0001B5B306D00C046C09901011025A601002C310020A968AF88087841F20542BF1A02
:2007100016D0A7F62B47002F42D1002840D1C878009008795F4601905E46CDF80890C0A36E
:20073000039740F27B51049615E0C046401C002070BBA86890F903100091817840785F4642
:200750005E4600EB01200190C5A302975D46039640F271510495179801220FF07FF817E03F
:200770004E616D6520696E2061647644617461312061727261793A201B5B33336D25731B56
:200790005B306D006DDD00000820594608F03AFE099F17B109981BF056FBA0681CF02AF86D
:2007B00000287FF4CEACA56828461CF01FF8854208BF5D4602D0856818F096FE002DECD001
:2007D0002F786E680A2F07D9103F00F0CC81DDE1650202101DEF01103F1E00F066817F1EC2
:2007F00000F05B81FF1E00F0FB807F1E00F0B0807F1E53D07F1E45D07F1E00F0C3817F1EF8
:2008100000F0B6817F1E11D0C0E1C0464D54552053697A653A20256400C046C04643205623
:20083000696F6C617465643A2025640058461BF0D9FF071C00F0AA811299062219F0FAFF4F
:20085000002800F0A3810120139A009006211323384612F0D5FFB3485E465B465A460090CD
:200870005946019617980293B9A303920122049140F276310EF0F2FF129839680160BE888B
:20089000868083E1BD4910200AF0EAFB022880F07D8158460090BA49627873E06E68306865
:2008B000401E32D0401E20D00E383ED170680178009140885F4601905A460297C1A3039213
:2008D00040F2CC4104972CE0324D00C0434F44454400C046556E65787065637465642050F9
:2008F00048592056616C756500C04FF49761BEA30EE0C046314D00C0504859205570646101
:2009100074656420746F2025730040F2B341BBA37068007800905F4601975A460292039760
:200930000492179801220EF099FF3068B0F1004F00F02C81706818F0D7FD27E150485920B7
:200950004368616E6765206661696C75726500C06E68B778002F0CBFADA0B0A000901598A0
:200970005B465F465A46019040F22951029717980393ACA3049201220EF070FF1698874973
:200990000090328810205B460AF06AFBFEE0C0465048592055706461746520537461747544
:2009B00073204576656E743A203078257800C046504859204368616E6765206661696C7565
:2009D00072652C207065657220646F6573206E6F7420737570706F7274207468697300C027
:2009F000686801790078002846D0401E2DD0401E20D0401E40F0CA80002904BF40F21151E6
:200A100095A33CD0009199A340F21551584601905F4602975E4603965A46049238E0C0461F
:200A3000525850683A2025642C20545850683A20256400C0002904BF40F2065191A31ED077
:200A5000009195A340F20A51E0E7002904BF40F2FB4197A313D0009199A340F2FF41D5E7F7
:200A7000525353493A25642C20636F6E6E48616E646C6520256400C040F2F54195A3584675
:200A900000905F4601975E4602965A4603920497179801220EF0E2FE78E030884AF6A021AC
:200AB000814273D140F2323140E0378841F210103F1A04D049F690103F1A35D066E058460A
:200AD0000090149AB1781023701D12F099FE307901285BD136A0009038A701979F4F40F24B
:200AF0000B71012285A302975F4603971798CDF810800EF0B3FEE0687279072118F014F924
:200B10007779002F0CBF84A084A025A100915F4601905E46CDF8088081A3039740F21371A1
:200B30000496B5E7C81B00204FF4497158465F4600905B465A4601971798029369A30392DE
:200B5000012204970EF08AFE304612F0D3F91DE0525020414444523A201B5B33326D2573E9
:200B70001B5B306D00C00820594608F04BFC0DE0686840884FF4A7616DA381E79D86010020
:200B9000ED7401106868008812F0FEF9686808B118F0AAFC284618F0A7FCFEE5699701004E
:200BB0001B5B33326D4C4544311B5B306D00C0464C45442053657276696365004C454431F2
:200BD00000C046C0416476205365742025642064697361626C656420616674657220636FB3
:200BF0006E6E20256400C046416476205365742025642044697361626C65640041647620D7
:200C100053657420256420456E61626C656400C0446973706C6179696E6700C053656E6406
:200C3000696E6700426F6E644D6772205265717565737465642070617373636F64652E202B
:200C50005765206172652025732070617373636F6465202530366400426F6E64207361764A
:200C700065207375636365737300C046426F6E642073617665206661696C65643A20256426
:200C900000C046C0456E6372797074696F6E207375636365737300C0456E6372797074692C
:200CB0006F6E206661696C65643A20256400C04650616972696E67207375636365737300F6
:200CD00050616972696E67206661696C3A20256400C046C050616972696E67207374617231
:200CF0007465640043616C6C696E672054656D702048616E646C657200C046C056616C75FB
:200D100065204368616E6765206D73673A2025732025733A202573006F6666006F6E00C01D
:200D30005475726E696E6720257320257300C046436F6E6E656374696F6E206576656E74F4
:200D500020646F6E6520666F7220636F6E6E48616E646C653A20256400C046C0A81B0020B0
:200D70002DE9F04F04462568206816460F46ADF5FE7DADF1500D1BF031FD01468896002226
:200D90008E97284649198A928142899140F20B85AA4A8F928A9B86939193879392939092BB
:200DB0004FF0FF368396869981910F468DF8107282970778252F08BF0A1C11D0002F00F030
:200DD000F28421680078491C216088991AF0DAFF20688A990778491C252F8A91EED1819ACA
:200DF00020688E9F401C206011E042F010020AE042F0010207E042F0020204E042F00802C1
:200E100001E042F0040281922068401C2060206800782038F5D0C01EF0D00838EBD0801EDE
:200E3000E6D0C01EE1D0206801782A2917D0302901AA0ADB3A2908DA0146401C2060097850
:200E500002F8011B01783029F4DA879810709DF80400B0B101A816F0F7FD829011E0FF1C72
:200E700027F003073F1D57F8040C002803D542F00102819240428290394620688E91401C28
:200E90002060206801782E2929D1401C206001782A2919D0302901AA0ADB3A2908DA01466A
:200EB000401C2060097802F8011B01783029F4DA879810709DF80400002808BF87980DD0EC
:200ED00001A816F0C1FD09E02168FF1C27F003073F1D491C8E9757F8040C21608390216885
:200EF000819E08784C3839D01C3817D0801E30D0801E04D0083827D0801F20D036E0491C2A
:200F1000087821606C281CBF46F0400046F040060ED146F4807046F4807623E02168491C35
:200F300008782160682805D046F0200046F0200681901BE046F4007046F4007612E046F4F7
:200F5000805046F480560DE046F4005046F4005608E046F4006046F4006603E046F08000DF
:200F700046F0800681902168491C2160097820686E298DF8101200F10100206000F0D68323
:200F9000732900F02E830DF20120829D859020214FF4FF7201A813F0E4FA859887990DEBFC
:200FB000050606F1040B01700A468B920DF5007C8C928A468D929DF81032CDF814C21846D7
:200FD000642814DC642821D0253800F0F9821C3800F04D81001F022840F24981133815D0B9
:200FF000093800F04481801E00F02A82F4E16538022840F23C81001F08D0801F012805D989
:20101000801F18BFB0F1030040F0E6818399002904D4819820F01000819002E00120839092
:201030000146B3F1580007D0173809D0401E03D0083818BF0A2204D1102202E0FFFF0F00F4
:201050000822702B00F0B280819843F66076D146D0463040203800F08B8020387AD0C038E7
:2010700061D0B0F5807047D0B0F5C06036D0B0F5006025D0B0F5805013D0B3F1580000F07A
:2010900095800C3800F08980401F00F08680801F00F08C80801F00F08980C01E00F0868092
:2010B0008EE0B3F1580000F081800C3875D0401F73D0801F7AD0801F78D0C01E76D07FE047
:2010D000B3F1580072D00C3867D0401F65D0801F6CD0801F6AD0C01E68D071E0B3F158009C
:2010F0002FD00C382DD0401F2BD0801F29D0801F27D0C01E25D063E0B3F158000AD00C38E8
:201110004BD0401F49D0801F04D0801F18BFB0F1030055D1FF1C27F003073F1D17F8048C42
:201130004FF000094BE0B3F158000AD00C3808D0401F06D0801F04D0801F18BFB0F1030078
:201150003ED1FF1D27F007070837A7F1080090E8000334E0B3F1580028D00C381DD0401F3D
:201170001BD0801F22D0801F20D0C01E28D11DE0B3F158000AD00C380FD0401F0DD0801FAC
:2011900004D0801F18BFB0F1030019D1FF1C27F003073F1D37F8045C0EE0FF1C27F0030716
:2011B0003F1D57F8045C4FEAE57907E0FF1C27F003073F1D57F8045C4FF00009A8468E97F4
:2011D000CE1745464846294350EA060708BF002903D181990E09C0F04981642B18BF692BE5
:2011F00008D1002806DA01276D424FF000018C9761EB000085A900910146284610F032FCD6
:201210008399401C81422BDA9DF81032782B03D0582B18BF702B11D1819908090FD3702BB2
:2012300008BF7823859803708598401E85903021017085989DF81032401E859081996F2B3F
:2012500040F014810809C0F0118185984278302A00F00C81302101708598401E8590B9E0CD
:20127000859930220A708599491E8591C8E7FF1D184627F00707A0F1610108378E97083FED
:2012900097E800031A2938BF20385546984208BF012547F6F072CE4647F6F07000EA194035
:2012B00082420FD18F9F714600260A004146324331434FF0FF36174006EA010208BF002A46
:2012D00040F0A28047F6F0724FEA0E0182425DD1909F0022404694464FF0FF360A434CEA2B
:2012F00000003040174008BF00284FD1B2A20CCA7146404612F030FD22D3002D14BF462116
:20131000662185988DF80012002DA0F10100859014BF4E216E2101708599002DA0F101008F
:20133000A1F10101859114BF49216921017085992B27491E85914FF0030A00F8017C8BE79B
:20135000002D14BF4621662185988DF80012002DA0F10100859014BF4E216E2101708599A7
:20137000002DA0F10100A1F10101859114BF4921692101708599491E85912D2700F8017C58
:201390008199DDF814C24FF0040A6AE04FF00047504600260F4000EA06000EBF002889F0F2
:2013B00000494FF0010AB3F1410026D0001F1CD0401E13D0401E07D01A381ED0001F14D0EB
:2013D000401E0BD0401E07D149EC108B81A885A908F0ACFE9DF81032819947E049EC108BDD
:2013F00081A885A915F06DFC05E049EC108B81A885A90BF03DFF819936E049EC108B81A8AC
:2014100085A905F089FFE5E7002D14BF4E206E2061468DF80002491E002D859114BF41203D
:20143000612008708598002DA1F10101A0F10100859014BF4E206E204FF0020A08700BE79A
:20145000FF1C27F0030755463F1D17F8046C8E9706B901258D9581998DF8006221F0020189
:2014700081916046401E85909DF81032859A752B02F101002BD06F2B29D0782B27D0582BFC
:2014900025D0702B23D05FEA0A0703D07F1E1ED101238C9301F002038C9F8B931FB98B0813
:2014B00008D32B2100E02D211170859A8199401E521E85928B9E374309D1CA0807D38599E1
:2014D00020220A70859A8199401E521E859249080DD2859D8299ADEB050202F2012291422C
:2014F00005DB01A96D1A5D44A5F5FE7500E001ADAC46401E4FF4FF7110F8017F0CF8017B84
:201510001FB1491EF8D1DDF848C28D9FCDF814C227B1879960460170401C859085988345B0
:2015300009D3ABEB00022021401E521C13F019F887988BF80000819840092ED301A8A8426E
:2015500032D001A82A1A302101A813F00AF88B9F8C9E374305D18198C00838BF0DF105000E
:2015700007D3287830218DF804000DF1060005F8011B9DF81022782A03D0582A18BF702ABB
:2015900002D18199090903D2612A18BF412A0BD16978017030276F7006E001A82D1A20211F
:2015B0002A4601A812F0DDFF01A81BF017F98D9F0246D21909E0C046000000000000000012
:2015D0007BA00188012201AF3980889901A819F095FEB0F1FF3F00F0A0808A9909188A9117
:2015F000D8E0839DF00949D2DDF82092FF1C27F003073F1D57F8048C8E97B8F1000F00F024
:201610009080829F002D06D440461BF0E7F8A84288BF281C02D840461BF0E0F80546BD4210
:20163000A8BF071C8A98AF4238448A900ADD700808D27E1B002E05DD202049461AF0A2FB0F
:20165000761EF9D1002D07DD2E4618F8010B49461AF098FB761EF8D18198AF4240F39A809B
:201670004008C0F097807F1B002F40F39380202049461AF087FB7F1EF9D18BE0DDF8209288
:20169000FF1C27F003073F1D57F8048C8E97B8F1000F46D0829F002D06D440461AF0B2F86E
:2016B000A84288BF281C02D840461AF0ABF80546BD42A8BF071C8A98AF4238448A900ADD34
:2016D000700808D27E1B002E05DD202049461AF059FB761EF9D1002D0CDD2E46A8F1020847
:2016F00038F8021FC8B2884213D149461AF04AFB761EF5D18198AF424CDD40084AD37F1BF7
:20171000002F47DD202049461AF03CFB7F1EF9D140E01AF069FB582101604FF0FF308A90FF
:2017300041E0929849461AF02DFB33E043F660703040203825D0E0380ED0B0F5807017D042
:20175000B0F5C06008D08A99FF1C27F003073F1D57F8040C01601CE08A99FF1C27F0030706
:201770003F1D57F8042C0846C91782E8030010E08A99FF1C27F003073F1D57F8040C017068
:2017900007E08A99FF1C27F003073F1D57F8040C01808E978A98B0F1FF3F04D02068899913
:2017B00081423FF6FDAA8A987FB014B0BDE8F08F2500704738B586B004468DF805104FF619
:2017D000FF720120ADF80220090ADFF8E058ADF8000002238DF806108DF8043069462A780F
:2017F00020461AF0F7FF162803D1297820461AF0EDFF07B030BD3EB504000D461ED0DFF8B1
:20181000B008006822461AF0DDFFFF2815D000200090002301AA294620460FF0A7FE60B92E
:201830009DF8040000F0F0F8C00606D59DF8040000F0EAF810F0040000D001203EBDFEB578
:20185000164615244FF6FF7290420D4615D100208DF80400DFF854789DF80400B979884241
:201870001AD23246294600F03AF800B100249DF80400401C8DF80400EEE71AF09FFF50B192
:2018900000F0FEFA40B99DF804003246294600F026F8002400E014242046FEBD7CB50D46E8
:2018B000044606214C43164600F081F8A8B900F079F890B99DF80700002E14BF054320EA59
:2018D0000505E9B2814206D08DF807506A460821E0B218F0DBFD012076BD002076BD2DE9D6
:2018F000FC410646344606235C438846154600F05EF8002853D100F055F800284FD1DFF8F6
:20191000AC77F87980001AF05FF8040003D1042018F0DAFB43E0F979703689062246090E20
:20193000F0B218F09FFD002835D1204600F058F85FEA08000ED1FA799206120E002120469B
:2019500019F037FA38BBFA7992000021204619F0A5FE16E0214600F030F858B9280004D090
:201970002146002000F029F810B900F0A0F916E0A0F800808178A9420DD085700DB90021C2
:201990000180204600F02CF8F97989062246090EF0B218F07BFD00F08AF9012000E0002006
:2019B000BDE8F6810622FF21684619F002BA20346A460821E0B218F055BD70B5DFF8EC3649
:2019D000DD79002200E0521CD4B2AC4206D231F824608642F7D101EB840070BD002070BDBE
:2019F00010B50021DFF8C4260AE030F82130DB4320F8213000EB8103491C9C78E4439C702B
:201A1000D3799942F1DB10BDE0B50623584320306A460821C0B218F025FD10B99DF8070073
:201A30000EBD00200EBDDFF88406007808210EF085BE38B50025DFF8744619E0E06906238F
:201A500013FB05F300EBC50220330821D8B218F009FD58B1E0690622FF2100EBC50019F057
:201A70001DFEE06900EBC5010022CA716D1CEDB2A1798D42E2DBA07C10B1BDE8314034E20D
:201A900031BDF8B5DFF82416DFF8283689791E680C460A4600E02A46D5B23DB1551ED2B26F
:201AB000324412F8017C8742F5D12C46E4B220464D1E07E01718165C7F7817541A680244FF
:201AD000401C5670A8421A68F4DBAC4204DABDE8F840052018F0DABCF1BD38B5002000244E
:201AF000DFF8C85503E0E0B200F008F8641CAA79E1B2914201D20100F5D032BD2DE9F84F8F
:201B100083465D46062313FB05F58EB005F1200701AA0821F8B218F0A5FC002874D1062201
:201B3000FF2101A819F045F900286DD1DFF87C65F079800019F048FF5FEA000904D10420E3
:201B500018F0C2FA0A2061E01C22FF2103A819F0A5FDF2799200FF21484619F09FFD05F14C
:201B700023040AAA1021E0B218F07CFC60B91022FF210AA819F01DF930B99DF80A0001A9C9
:201B900000F001001AF016FE082200F042F801AA0821F8B218F07AFC8DF8000003AA05F1AE
:201BB000210000F03AF8074605F1220003AA00F034F8804603AA1021E0B218F067FC0446B9
:201BD00005F1240003AA102100F028F88246253503AA0421E8B248EA070718F057FC27435A
:201BF000F1799DF800504AEA0707074389060BF170034A46090ED8B218F048FC07434846A7
:201C100019F0EAFE3D4300E0002528460FB0BDE8F08FFF2101A819F041BD1C21C0B218F066
:201C300035BC2DE9F84187B0FF208DF80000DFF87C54A87919F0C8FE040004D1042018F0DD
:201C500043FA0A2030E01022FF2103A819F026FDAA79FF21204619F021FD0622FFF7D9FF0E
:201C700003AA1021022018F011FC064603AA1021032018F00BFC06436A460121042018F09C
:201C900005FC0746A9792246052018F0FFFB054601AA0621062018F0F9FB804600F007F841
:201CB0003E432E4348EA060008B0BDE8F081204619F092BEDFF8F4134088097818F05ABB19
:201CD000F0B5A9B006460D4614461AF077FD08B91420AAE0A4220021684619F0DFFCADF8E2
:201CF00000600DF12607DFF8C463F078717B8DF80400B07B8DF8A000279861F30000717B1F
:201D100027908A074CBF0222002220F0020010432790CA064CBF4FF48072002220F48070C8
:201D3000104327908A064CBF4FF40072002220F40070104327904A064CBF4FF480620022E7
:201D500020F480601043279049074CBF0421002120F0040008432790F07B02280CBF01203D
:201D7000002078741AF022FD412807DBF07B00B108209DF8991008438DF89900307CB8B1D3
:201D90000121B974202206F188010DF1390019F07BFC202206F1A8010DF1590019F074FCB9
:201DB000202206F1C8010DF1790019F06DFC00E0B874307B8DF8050088B1BF4F102207F176
:201DD00010010DF1060019F05FFC9DF89900082805D1102239460DF1160019F055FCF07ABD
:201DF0008DF8260028B11022B4490DF1270019F04BFC307948B1022D18BF032D03D1279840
:201E100040F002002790012100E000219DF899000143B0788DF8991000B1042001438DF840
:201E30009910684621461AF0BDFC29B0F0BD2DE9FC41154615244FF6FF72904288460DD170
:201E500000279A4EB179F8B2884216D22A464146FFF724FD00B100247F1CF3E71AF0AEFCD1
:201E700050B100F00DF840B99DF804002A464146FFF714FD002400E014242046BDE8F6810E
:201E9000002100910023417901AA01F00101801D0FF06CBB70B504460D4606204543082B9F
:201EB00088B0164603D1300758BF223500D521351C220021FFF7AEFE01AA1C21E8B218F04F
:201ED000D1FA80B99DF81E00C01F0A280BD29DF830000090F20801AB02F0010206F0010165
:201EF00020461AF05BFC08B070BD38B51AF052FC00246E4D0FE0E8690622FF2100EBC400CB
:201F100018F057FF28B9E86900EBC40100201AF03DFC641CE4B2A8798442ECDB31BD3EB569
:201F30000C46002501460095002301AA20460FF01DFB38B99DF80400FFF766FDC00601D475
:201F500001203EBD00203EBDF8B506460F4615460C2019F039FD040019D02681A772002059
:201F70002060E07245B10821284619F067F8606018B9FFF79CFE0BE060605148016811B9F2
:201F9000046004E0014608680028FBD10C600CB91520F2BD0120E0722A4639463046FFF75B
:201FB0008FFE04464148806900281CBF4368002B03D000220021304698472046F2BD38B582
:201FD00005463F48046803E02089A84204D02468002CF9D1012032BDE07A012807D100F08C
:201FF00059F820B13148007804210EF0A7FBE17A491CE1722846C9B200F002F8002032BD04
:2020100038B502290446294D02D003290DD01EE042F6C921FFF7CEFB02001CBFA869002808
:2020300018D04368B3B105210CE042F6A621FFF7C1FB01001CBFA96900290BD04B684BB135
:2020500002460421204601B0BDE830401847BDE8324000E031BD10B5194B1968002201E0E6
:202070000A46096851B10C898442F9D10868002A0CBF18601060084619F0AEFC002010BD2D
:20209000024604200E49096819B10B899342FAD1C87A70470A48006828B1006818B1C17A06
:2020B0000029FAD17047002070470000A42E0020680F0020744800203C4500206C450020B7
:2020D0007848002038B5264C049D2070E2712372A1716572C80019F077FCE061D8B1A27986
:2020F000D200002119F0DAFAA07919F06DFC206208B9E0690DE0A2791A4D002119F0CEFA88
:20211000A07919F061FC286050B9E06919F064FC206A19F061FCBDE83240042017F0D4BF28
:20213000A279002119F0BAFA04F1E8001AF02AFB2178062016F06AFAFFF77BFC2A68A17948
:20215000052018F08FF948B1A179002004E02B680A1A521E1A54401C8842F8DB31BD00BF68
:20217000A42E0020744800202DE9F84F054688B0A978DFF83C67002710294FF0060A3CD843
:20219000DFE811F0110092039203920392033C00CF0092039203F5021501000147039203E0
:2021B000CB020D038A036878002826D11AF0E6FA04461AF0DFFA05461AF0D8FA8DF80000E3
:2021D00022461021022018F061F92A461021032018F05CF96A460121042018F057F99DF8CE
:2021F0000000012818BF032807D101201AF0FAFA02460621062018F049F955E3687800288E
:20221000FBD195F80CB06C8900900023E97801AA01F00101281D0FF0A9F900284FF001089C
:2022300075D19DF80400FFF7EFFB8146BBF1080FF07908BFB846800019F0C6FB050003D1F4
:20225000042017F041FF2FE370789DF8041002280CBF0120002000905B464A462046FFF70D
:2022700019FE1422002102A819F018FA9DF804001AFB00F0243002AA1021C0B218F0F2F8E8
:20229000B0B91022FF2102A818F093FD80B99DF804001AFB00FA0AF1250306AA0421D8B2CE
:2022B00018F0E0F802AA09F0010120461AF05AFAF1799DF80400890670302A46090EC0B298
:2022D00018F0D0F898B92846FFF78AFBBA4609E005EB8000018819B18278204618F0CCFB09
:2022F0000AF1010AF1795FFA8AF08842F0D3707A30B95FEA897003D53178204618F03AF8C8
:202310009DF80400FFF7BDFB284619F065FB7078022805D1B8F1000F02D0204613F088FF2D
:20233000C2E2A888FFF797FE1AF018FA0028F7D1F07C012808D1FFF7D0FB306AF7740422C8
:20235000002119F0ABF917E0307D012803D1FFF768FC377510E000240AE0306AE5B2415D2B
:20237000012904D1E0B2FFF7C9FB316A4F55641CE0B2B1798842F0D3502018F06DFCFFF723
:2023900058FB91E21AF0E6F900280CD0B06900281CBF0468002C07D0286900906B7B2A7B43
:2023B0006989E81CA0477EE26889012171E26878002840F0EB80A879C10740F1E78008221C
:2023D000002105A819F06AF9A8881AF0F7F904006FD0D5F81480B8F1000F27D006220021ED
:2023F00008F1110018F0E5FC58B306220021404618F0DFFCC8B998F8100000F00109BB4601
:202410000BF1010B88F811B0009700230022494608F111000FF0AAF800285FFA8BF002D17E
:202430000028EDD101E000280BD16F61607900F001008DF81A000622A11D05A819F024F9CF
:2024500024E0D5F81480B8F1000F1FD098F8100000F001008DF81A00062208F1110105A850
:2024700019F012F96079012805D10622A11D04F10C0019F009F9062208F11101A01D19F075
:2024900003F998F8100040F002006071A879410720794CBF40F0020000F0FD002071A879AF
:2024B000010720794CBF40F0200000F0DF00207106E0FFF7EFFD18B1307804210EF03EF91D
:2024D000A9799DF81B00890801F0010108438DF81B00A97900970A074CBF08210021084341
:2024F0008DF81B0000239DF81A1004AA05A80FF03DF8F0B1002400E0641CB179E0B2884210
:202510000AD2F069E3B20622FF2100EBC30018F050FC0028F0D009E0DFF898231078002884
:202530001DBFDFF89413086804780C468DF8104019E06869B8B19DF810001AFB00F02330EE
:202550006A461021C0B217F08DFF60B91022FF21684618F02EFC30B99DF81A0005A900F004
:2025700001001AF027F99DF81000B179884280F0D280F079800019F027FA04001DD104209C
:2025900017F0A2FD0A27A888FFF765FDB06900281CBF4368002B0FD06A78A88801219847E8
:2025B0006878002808D1A879C10705D5B369A8885C683A460321A04775E19DF810001AFBBC
:2025D00000F0203005AA0821C0B217F05FFF9DF81000FFF756FAF2799200FF21204619F085
:2025F0005DF8F1799DF81000890670302246090EC0B217F04BFFF0699DF81030082205A9F0
:2026100000EBC30019F040F86A6992B1107C002302F1110100F001001AF098F86A6942B1A0
:202630009DF810001AFB00F023301021C0B217F02DFFAA6842B19DF810001AFB00F02130B7
:202650001C21C0B217F022FF2A6942B19DF810001AFB00F022301C21C0B217F017FFEA68F3
:20267000AAB19DF810001AFB00F024301021C0B217F00CFFE86800F110029DF810001AFB2F
:2026900000FA0AF125030421D8B217F0FFFEB07C08B1FFF72AFCB5F80480706A4FF6FF7991
:2026B00048B906F1160100910223844A494601201AF048F87062716A11B3FF200390022236
:2026D0000292019707A800900DF11203F28A404606F096FA68B99DF812009DF8131000EB79
:2026F000012290B228B1706A418992B24046FFF7A6F8F28A706A002349461AF01FF870628F
:20271000204619F069F9307A0028A8887FF43CAFFFF755FC3AE7152735E7687806281BD1BE
:20273000A8881AF04BF8B8B1717C012904D013D3032907D00CD30FE04179A8880022FFF7FF
:2027500003FC09E00022002140F2094005F0CAFBA888052119F0EEFFB06900281CBF4368F6
:20277000002B03D06A78A888022198479BE000970023E97801AA01F00101281D0EF0F6FECC
:202790000028F3D19DF804001AFB00FA0AF1250305F10C020421D8B217F078FE83E0B069C6
:2027B00000281CBF4368002B03D0A888002200219847707810B9A88805216AE0A88819F081
:2027D000FDFF040070D0A87AC10712D5009700236179002201F00101A01D0EF0C7FE002887
:2027F0001EBF60790028012803D0E868C0F3402028B1F07B022807D1A87A010704D4A88814
:20281000032119F093FF4FE06179A88805F1080227E02F7BAD88284619F0D0FF040042D06E
:2028300019F098FF00283ED100900023617901AA01F00101A01D0EF099FE28BB9DF80400B8
:20285000FFF7E2F807F00C07042F11D0082F0BD00C2F0FD100F0090109290BD0617900224A
:202870002846FFF771FB1EE010F0090F02D1F5E7C107F3D501220092A37C9DF8041002465E
:202890002846FFF707FB0EE070780028E6D10521284619F04BFF06E0FFF7FCFB18B13078E2
:2028B00004210DF04BFF0127384609B0BDE8F08FA42E0020DF48002074480020F0E401002F
:2028D0002DE9F84F012016F0F9FE012816D1DFF860663078002119F025FF040004BF0020E3
:2028F00017F0F2FB00202072201D0EF02BFD19F015FF050003D1812019F00CFF13E30120FD
:20291000687105F59777DFF82C06DFF82C264178491C4170A879A0724020317811700EF00A
:20293000B5FC2860616D4A78206DD10619D5816C0A681179032904D00CBF0120002017F070
:20295000C3FB206D816C90F86C000A6802F1080A01281CBF002017F0B7FB216D486F296811
:202970003CE0C16E0A681179032904D00CBF0120002017F0A9FB206DC16E90F898000A68FB
:2029900002F1080A01281CBF002017F09DFB216DDFF8A825D1F8A0002968DFF8A435C8605B
:2029B0009AF82660032E19D8DFE806F002050C0F00F5B06001E000F53470C8601088F88730
:2029D000118808E000F5355001E000F6B870C8601888F8871988A5F8741102E000F5B060FC
:2029F000C8602868DFF85C65C168DFF85C8501F59071C16006229AF80000C0F380103870D9
:202A10000AF1020105F5947018F03EFE04220AF10E0105F1240018F037FE306895F8069024
:202A300000F10C0304220AF10E0103EB491018F02BFE3068AB7900EB431303220AF11201AE
:202A500003F1100018F020FE05F12C099AF8150089F8020002220AF1160105F1300018F083
:202A700013FE02220AF1180105F1320018F00CFE02220AF11A0105F1340018F005FEB9F8A3
:202A90000800688402220AF11C0105F1360018F0FBFD99F80200B9F80A10400089F80200A9
:202AB0000901B9F80400A9F80A104000A9F8040089B2B9F806004000A9F8060003046A8CD1
:202AD000521CDB0B5A438A4201D280B230B998F8000080210DF032FE3B2131E105F12E014A
:202AF000284619F013FE0520A881284619F00AFE05220AF11E0105F1610018F0C5FD9AF87D
:202B10002300400989F8000019F0F8FD6882618D401AB88105F161019AF82300DFF82C74CB
:202B300000F01F0089F80F004FF01C0A284619F0E1FD616D4A78206DD1064CBF816CC16E11
:202B500041F62102086800210171A97938681AFB01F142520021AB791AFB03F3034459803B
:202B7000AA791AFB02F210444160616DDFF8E0034A78D1060DD5DFF8DC138A7851060AD523
:202B9000DFF8D423138841F20A418B4208BFDFF8CC03C5F89C01D5F89C11284688473A6851
:202BB000A97902F10E031AFB01F15854AA7938681AFB02F202440020D0733968A87901F103
:202BD0000E021AFB00F0115C89F80D10606D4178CA061DD595F8960108B917F075FAA97900
:202BF00038681AFB01F1014495F89601421E0A74A87939681AFB00F00844002141743A684C
:202C1000A97902F112001AFB01F1002242522BE0A97938681AFB01F10144206D90F8402032
:202C30000A74A87939681AFB00F00844216D91F841204274206D3968AB79403001F11202FD
:202C50001AFB03F34188D15205F5CB710078012200F0030082400A70226D92F8400080088C
:202C700014BF0120022008713968A879DFF8F0B201F1140231681AFB00F301EB4010D05075
:202C9000A87939681AFB00F00844B6498161DBF814000078C107DBF8141009784CBF1F2047
:202CB0000F208A07DBF81410097848BF40F020004A07DBF81410097848BF40F040000A0724
:202CD0003168AA7901EB421348BF40F080001872A979306800EB41120B2050723168AA7905
:202CF00001EB42100421A04A81721078012806D13168A87901EB40120121D17207E0DBF8E5
:202D100024003168AA79407801EB4213D8723168A87901EB40121F2111763068AA7900EB1B
:202D3000421100204876A87919F0E0FCAA79316852018850AA7931685201885820B9072175
:202D5000284619F0CFFCEEE08848AA79016801EB021019F0C3FCA8793168844B01EB40126A
:202D7000196801EB00105060A979306800EB41125168C9F83C10AA7952018158C9F84410F4
:202D9000042198F800000DF0D9FC616D4A783868D10648BF02210AD4A9791AFB01F101441F
:202DB0000A7C02F00302022A14BF04210621B9F8042095F806C04FF4C8738A18698AAA61F5
:202DD0005143B1FBF3F35B1C6B611AFB0CFCD5F800E06044DEF80CC040F6C41101FB02C29F
:202DF000D21AA2F5A8628260AA7938681AFB02F283189A682B689A6000F10C03AA791AFB26
:202E100002F20C309B5C03F0EF038354A8793A681AFB00F002F10C030C321B5C03F07F03CB
:202E30001354A8793A681AFB00F002F10C030C321B5C03F0F00343F002031354AB79386853
:202E50001AFB03F31844427B02F0F00242F001024273AA7938682B681AFB02F202449068D3
:202E700018613068AB7999F802C000F11402686940005B0111FB0C0000F5F660D05095F836
:202E9000960104280DD13068AA7900F114034FEA421C143053F80C20AB795B0102F5616232
:202EB000C2503068AA7900EB4210C37C03F0F00343F00403C374DBF830003268AB79006839
:202ED00002EB431CB9F8062042436423B2FBF3F35943A1F59661CCF81C103068A97900EB62
:202EF0004110C27E02F0F00242F00402C276A97938682A681AFB01FA00EB0A015160284664
:202F10000E2119F0E7FB1A4907200870204615F0CFFEAA790021204619F0D8FB28681549D9
:202F3000154A41618261BDE8F14F05F03FBB00BFD50F0020780E0020D70F00208E0F00209D
:202F5000900F00209C0E0020C70F0020980E002081010210C00C00209A0F00204DE5011090
:202F700080EC0100980C0020CC0F0020A40E0020C80F0020DD860100020480802DE9F04F8D
:202F90000446B7480D461646ADF5FE7D5B1E011DADF1600D9095F21E8F94D1F800C0929364
:202FB00016F1140FCDF854C24FF01801CDF850C292FBF1F19391BCBF002193910C46624680
:202FD000A6EB04161946A6EBC406183E8D18A4EB0104969612D406466D1CE8465036002C26
:202FF00044BFC3A003C803D456F8240016F036FF6D1EA8E8030004F10104F0D195980028DE
:2030100028D405460DF5A07B00266D1C929FB8A090E80003002F17D4DDF83CA206EBC70004
:203030007F1C0DEB0004BAE8030094E80C000BF041FF0B4602464946404607F006FC083C96
:20305000894680467F1EEED16D1EABE8000306F10806DBD19598919048E0B9F1000F42DD4F
:203070009199DDF848C2939A7D4F0DEBC1030CEB0100CB4603F5A473C4008A188C930834A9
:2030900007EB820000F1500A61440DEBC1065AF8040F16F0E3FE083686E8030094A003C803
:2030B000929F8D90002F8E9115D4DDF83C820DEB04057F1CB8E8030095E80C000BF0FAFE2D
:2030D0000B4602468E998D9807F0BFFB083D8E917F1E8D90EED18C9ABBF1010B03C204F1D5
:2030F00008048C92D3D1919848449190C5000DEB050404F5A07494E80003002828DD083C59
:2031100007460DF5F07BC4A20CCA494640460BF0D1FE14F06FFF16F0A1FEC1A20CCA8A46AA
:2031300006460BF0C7FE0B4602464946404607F087FB14F05FFF4BF8040B94E80300534680
:20315000324607F082FB083C894680467F1EDAD1969F49EC108B38460BF092FBB2A20CCA1D
:203170005AEC109B514648460BF0A4FE41EC100B0CF010F9AEA20CCA51EC100B0BF09AFE2E
:203190000B4602465146484607F05AFB8846814614F030FF8D9016F061FE0B4602464146AB
:2031B000484607F04DFB0FF2982B88468146002F14DC381C0BD0A0A20CCA484610F00FFED8
:2031D00084BF00208E9073D802208E9020E091980DEB8000D0F8DC01C01516E091983C4617
:2031F0000DEB800303F5F0738D9F53F8040CC4F11802C4F1170440FA02F101FA02F2801A0D
:2032100043F8040C7A188D92204100288E904FDD9198002400280EDD77A951F8047F24B9A6
:203230003FB1C7F18077012402E06FF07F42D71B0F60401EF1D1969F8D98002F00F10100BC
:203250008D901ADD7F1E0DD07F1E16D191980DEB800101F5F07151F8040C6FF39F500AE0BF
:20327000A8DE010091980DEB800101F5F07151F8040C6FF3DF5041F8040C8E98022817D153
:203290009BE8030043464A4607F0DAFA8846814674B19BE8030041EC100B96980BF0F0FA19
:2032B0004146484653EC102B07F0CAFA884681460FA20CCA4146484610F04EFD41D08A4657
:2032D000969F4AEC109B78420BF0DAFA919854A20CCA5AEC109B0DEB80045146484610F0B8
:2032F0007EFDD04604F5F07488BF4E4623D803E0000000000000000047A20CCA48460BF0CF
:20331000D9FD14F077FE16F0A9FD45A20CCA8A4606460BF0CFFD0B4602464146484607F05D
:203330008FFA14F067FE1837083544F8040B91989697401C91905146304614F05BFE2060F7
:2033500039E0919895990026401E81420CDC919F95980DEB870101F5EE713F1A51F80409DD
:203370007F1E40EA0606F9D176B995984FF001090DEB800000F5EE70016800297FF46DAE10
:20339000001F09F10109F7E79199969F0DEB8100083D183F00F5F070491E9697001F91917E
:2033B00006E09199183F083D001F9697491E919101680029F5D09BE8030041EC100B3846D9
:2033D0000BF05EFA91985BEC10ABD94600281ED407460DEBC7040DEB870804F5A07408F585
:2033F000F0787F1C58F8040916F038FD4B4652460BF060FD08A284E803000CCA494650468D
:203410000BF058FD083C894682467F1EEAD1919C002C51D418E0C046000000000000703EEF
:203430000000000000007041000000000000C03F0000000000002040000000000000E03F4D
:20345000000000000000F03FA5EBC40528A8E70005EB0008949E3DA090E8000C002ECDF89F
:2034700030A221D4DFF8EC90DDF844A2354600266D1C09F11009AAEB040AB24514DBF200AF
:2034900002EB090003C850ABD219D2180CCA0BF011FD02468C980B46594607F0D6F9761CF8
:2034B0008B466D1E8C90E8D1DDF830A2641EA7F10807A8E8000CCDD5919F24A090E80C0045
:2034D000002F10D40DEBC7047F1CA03494E80003194610464B46424607F0B7F9083C7F1EC2
:2034F00002460B46F2D18E9900290CBF191C83F00041DDF840C2104628AF8CE8030097E862
:20351000030007F09DF9024691980B4600280DDD0DF1A80A0746BAE8000310464B46424626
:2035300007F093F97F1E02460B46F4D18E9909B183F0004390988D9F08307FB080E80C0037
:2035500018B007F00700BDE8F08FC0460000000000000000A8DE01002DE9F04FC54856EC40
:20357000105B0FF2D0293146ADF1540D21F00044A04218DDC048A04203DD284614F03AFDC1
:2035900070B199E80600002034462B46904644EC103B0F4648EC117B08F064F856EC105B01
:2035B000314628469AE2B548A04205DC28460B46024607F045F991E2B148B046A9A70FF2EB
:2035D000AC2AA04200F3C380AE48A0424EDCAE48A04200F36381AD4AC1F30A5023150227D6
:2035F0000005A3F2164A261A6C46B6183146284614F000FD16F032FC0B4602463146284669
:203610000CC407F01DF98DA20CCA0BF053FC05460E467F1EEAD104AC84E86000032594E857
:20363000030099E80C0010F097FB1CD0684606A952462B46FFF7A2FCB8F1000F074606D493
:2036500006A890E8000308AE96E8030013E206A890E8000308AE96E803007F4289F0004922
:2036700081F0004107E2083C6D1ED8E78848A04236DC8848A04200F01181B8F1000F71A24E
:2036900072A416DC0CCA284607F0DFF894E80C0006460D4607F0D9F8894680464B46424663
:2036B0002946304607F0CCF894E80C0007F0CDF8E9E10CCA284607F0C3F894E80C00064682
:2036D0000D4607F0BDF8894680464B4642462946304607F0B5F894E80C0007F0B1F8D2E1C9
:2036F0006D48A04200F0DA80B8F1000F59A25BA416DC0CCA284607F0A8F894E80C00064686
:203710000D4607F0A2F8894680464B4642462946304607F095F894E80C0007F096F8B8E1F8
:203730000CCA284607F08CF894E80C0006460D4607F086F8894680464B464246294630468B
:2037500007F07EF894E80C0007F07AF8BCE1D449C4F31300814200F0A180D248A04234DC97
:20377000B8F1000FD4A2D6A417DC0CCA4146284607F06BF894E80C0006460D4607F065F8FE
:20379000894680464B4629464246304607F058F894E80C0007F059F886E10CCA414628463D
:2037B00007F04EF894E80C0006460D4607F048F8894680464B4629464246304607F040F89C
:2037D00094E80C0007F03CF86EE1B8F1000F18DC97E80C004146284607F037F89AE80C00F7
:2037F0000C46054607F031F8894680464B4621464246284607F024F89AE80C0007F025F8C4
:2038100062E197E80C004146284607F019F89AE80C000C46054607F013F8894680464B467A
:2038300021464246284607F00BF89AE80C0007F007F82EE10000000000000000000000008E
:203850000000704100004054FB2119403163621A61B4F03D0000307F7CD91240CA9493A75E
:20387000910EE93D00004054FB21F93F3163621A61B4D03DFC21E93F0000503E0000F07F17
:203890007B6A0F403C461C40FB21394100006041BDFD1540FB2119407CD9124092A20CCA9A
:2038B000414628460BF006FB0FF2442898E80C0006F0CBFF98E80C0006F0C2FF0B918146A8
:2038D0000A90884614F096FB0C9097E80C00414648460BF0EFFA0B4602463146284606F047
:2038F000AFFF13909AE80C008B46414648460BF0E1FA11901398119A12910B46594606F09D
:203910009FFF80460B984B4689460146184697E80C000BF0CFFA0B4602463146284606F0C8
:203930008FFF0E910D900B990A989AE80C000BF0C1FA0B4602460E990D9806F081FF24158F
:203950004800A4EB5050102840F387800B990A9869A20CCA0BF0AEFA8A4605460E990D983D
:2039700053462A4606F06CFF8B4613900B990A9863A20CCA0BF09EFA0E460746139A0E99B0
:203990000D985B4606F05CFF53462A4606F058FF0B4602463146384606F052FF1190129111
:2039B0001398129B119A594606F04AFF8046894613980E990F9002460D98CDF840B05B464D
:2039D00006F03EFF53462A4606F03AFF0B4602463146384606F034FF02460F980B465946D6
:2039F00006F02EFF4800A4EB5054322C35DB0B9C0A9D45A20CCA214628460BF05BFA8246B3
:203A10001398894659464B46524606F019FF80463FA2CDF84C800CCA8B46284621460BF097
:203A300049FA0C46054610990F985B46424606F007FF4B46524606F003FF0B460246214600
:203A5000284606F0FDFE0B461293024611925946404606F0F5FE89468046139859464B4698
:203A7000424606F0EDFE129B119A06F0E9FE0A460C990F46114617F0030704D07F1E08D09D
:203A90007F1E11D020E00A4601464E46454601207AE549EC108B41EC110B08F00FF87DE5E8
:203AB000FB2109007DD9024041EC110B49EC108B012007F0D7FD0DE000004054FB2109404E
:203AD0003163621A61B4E03D49EC108B41EC110B07F0F4FF51EC100B81F0004115B041EC95
:203AF000100BBDE8F08FC04683C8C96D305FE43F00000000000038430000601A61B4D03D27
:203B10007370032E8A19A33B0000002E8A19A33BC14920259A837B392DE9F84FDFF8B054F9
:203B3000A9780024FF2904BF002016F0CDFAA87817F046FD054605F1680605F5C97731686C
:203B5000086805F1900808B1EC8311E0B07B002804BFB07E00280BD198F80010002904BF6A
:203B70003878002804D1287F012804BF688CE8832989E88B4118491C6981284618F0A2FDB4
:203B900001281EBFDFF84C040178012903D12989EC83491C69814FF6FF79B07E01280DD10F
:203BB000B28B6989288918F089FD38B1298968894A1C93B298422FD0B08B23E098F80000A9
:203BD00001280FD1B8F802206989288918F076FD40B1298968894A1C93B298421CD0B8F827
:203BF00002000FE03878012816D17A886989288918F064FD80B1298968894A1C93B298429D
:203C10000AD0788892B2904206D04844688180B218F050FD4844E883387801280FD1288971
:203C30007988401C80B2884209DB7C793C71022038702346A979224600200CF019FD05F5AC
:203C50009A71087920B128890021401CE983688105F12E08B07E01284BD12A89B08B521C79
:203C700092B2904245D1688105F18601284618F04DFDB08C688400212977E983E88969892A
:203C90004118A981B08B298918F014FD8146B8F80410308C728C01FB0909F08C8A4204BF2D
:203CB000B8F80810884202BFB38CB8F806108B4206D000090090B38CA9795208002004E0A1
:203CD000000900905208A979302018F0EFFCB07F88F80000718CA8F80410B08CA8F806003A
:203CF0002846F18CA8F8081018F00CFD0220B07601E0B8F80490EA8B501C00FB09F040F688
:203D1000C41909FB00F100912B68D3F80CE07144D960B14B1B681978890903291BD1AF4B44
:203D3000AF49DB7BDB0702D500230B8013E00B885B1C0B809BB2012B03BF05F59A71C988A5
:203D500001F2DC51698A41434FF4C873B1FBF3F1491C696107E0698A41434FF4C873B1FBF7
:203D7000F3F35B1C6B61A86185F820204FF01C0BDFF870A2AB79DAF8000000F108021BFBEE
:203D900003F3D1582A68116100F10801AB79D26868691BFB03F3121ACA50DAF80000AB797F
:203DB00000F108021BFB03F3D1582A68916000F10C02A9791BFB01F10C30535C03F0F00346
:203DD00043F002034354DAF80010AB798A1C1BFB03F30021D152387908B916F075F9DAF850
:203DF0000000AA7900F1100138791BFB02F240088854A879DAF800101BFB00F00844002139
:203E100041743879042814D1A879DAF800101BFB00F001F110021031135C3A7A43EA8203F8
:203E30000B54AA79DAF800001BFB02F2024420205074DAF80010A87901F112021BFB00F0BB
:203E5000002111526849A8790A6802F114034FEA401C143253F80C00AB79D5F814C05B012D
:203E700000EB4C00D050B07E02280DD10A68AE7902F11403760114329859AB7998F8006040
:203E90005B0119FB0600D0505448C27BD0075CD5DAF80000AC7900F108031BFB04F4083062
:203EB0001A59AB791BFB03F3A2F5A862C250DAF80000AC7900F108031BFB04F41A592B6895
:203ED0009A600098121A1A610868AC7900F11403640114301A59AB795B0102F5F662C250FF
:203EF000387904280BD10868AC7900F11403640114301A59AB795B0102F56162C250086884
:203F1000AB7900F114025B01D058C5F834016427364A0B68106BAE79006803F11C04B8F8A4
:203F300004304343B3FBF7F7760109FB07F0A0F59660A0512E480378012B30D10868A9797D
:203F500000EB41120120D07230E0042C0BD10868AC7900F11403640114301A59AB795B015B
:203F700002F56162C25038790A68AC7904280CBF4FF4AA504FF4E66002F1140364011A597E
:203F9000101AB8F8042009FB02F2A2F516729042BDD30821284618F0A5FB012016E0506A8A
:203FB0000968AA79407801EB4213D872A879DAF800102A681BFB00FB01EB0B0050600721A5
:203FD0000C480170284610F01BFF0020BDE8F28F780E0020D10F00203C0F0020980C002069
:203FF000CC480020980E00209C0E002080EC0100CC0F0020C80F00202DE9FC47D54C0F46BF
:204010000546F80B80F000826078DFF84C83B90F80F0A481B90880F09581F90A80F0FF803C
:20403000390B80F0CA80380907D2F80FC0F0228227F0804711F0C2FD1CE217F041FF814653
:2040500016F0CAFD002800F0B280082017F0E4FD002840F0AC80802017F0DEFD002840F0CB
:20407000A68068460EF0A4FC012803D10098002800F09D8094F8F101002840F098800025E1
:204090000126E8B217F0E2FA48B1837A3BB1867290F9090006FA00F0C0B215F071F86D1CA7
:2040B000032DEED30320207604F1D40017F000FF484618F0F7FAD14800252A460168056074
:2040D00050F8081CCE4940F8085C04F1540016F093FC40460068006B8047A168401A010B44
:2040F000206AC1F1FF3282422CBF08444FF0FF30206294F8240020B12069216AB1EBC02F38
:2041100025D916F079FD294600B13146081C1BD0BC4840F6090101804580417B06F00F0222
:2041300021F00F010A434273017B05F00F0321F00F0143EA010202732946416017F02CFCC4
:20415000418811F4406FFBD084F82460256213F035FDCC4829460560022016F0DBFA022044
:2041700015F000FD11200CF0FFFD207818B96068483017F0C5FEC448007810B90E200CF01A
:20419000F3FD94F8250020B184F82550052015F0E9FCBE48E0612576B4F9A800B4F9AA10FF
:2041B000884214BF022007200FF09EFE02E0484618F078FA27F008073CE720B1042015F041
:2041D000D1FC00206070656814F0BEFF38B12846ED696FF4807100224FF00073A847E06878
:2041F00058B140460068006B8047E2686168801AC860000BC8600026E660A54904F15400DB
:20421000002216F0F9FB0221D4F89400217618B104F5927017F086FE27F400670AE717F08F
:204230004FFE064616F0D8FCD4F88C100028894600F0828000297FD09649042504F15400E1
:204250000022257616F0D8FB304618F02BFA04F1D40017F02DFE40460068006B8047E060BA
:204270004FF0010884F80180284615F093FCD9F810006060D9F81000416AC90803D3036AA6
:20429000294600229847404611F0A2FF606880F8158060680AF06CFA6568D5F808A040F601
:2042B0000A02D01F564600F1010C00E01E46736833B119888A4203D0884218BF8C45F5D1DE
:2042D00000217160727B08F00F0322F00F0213437373D9F80C201288904224D060469042B1
:2042F00021D02B8E03B3696305F13002518095F83C0001F00F0320F00F00034385F83C306F
:2043100095F83D0008F00F0320F00F00034385F83D307260707B01F00F0520F00F0045EA5A
:204330000001717300E0E160504617F035FB5146404616F0EFF902E0304618F0B3F927F468
:20435000806797E00AF074F8D4F8940008B927F002078FE0A03700208C0100104E4A116834
:2043700041F08001116020B1042015F0FBFB0020607017F0A5FD8246D8F854000168042008
:204390008847D0B1287DC0B1A068B0B18146D8F800002E69006B8047A0EB09002861000BB6
:2043B0002861B04202D280194008286140F6C41181422CBFB0F5967F2961504618F072F92E
:2043D00014F0C2FE80B1EE6928466FF4807100224FF00073B047D4F88C00002808BF47F076
:2043F000020701D011F0EAFB2846AD6900214FF080630A46A84727F000573BE014100440F6
:20441000C56A0100AC47002017F05AFDD4F8A46066B306F1280106C90A234FF0E0450B4037
:20443000154008BF002B21D106F1280191E8000306F1280595E8060006F1280322EA0902B7
:2044500021EA080183E8060018F02CF9B16879B1B9F1000F08BFB8F1000F09D03069B6F9FE
:204470003010B5684B464246A84701E018F01AF927F4804727B104F59270394617F052FD41
:20449000BDE8FC8700000460A2EA010041FB0000C1ED0000C9AB0100CC2108402DE9F04F0A
:2044B0004FF000094E46ADF15C0D0796089609960A960B964FF0FF080C9641460D910E9142
:2044D0000F9110961191B24C12914F46139704F1300A1497E068159190E0E068710306AA60
:2044F000042317F013FC149903AA304616F0A4FA02AA3046012116F09FFA3046022101AAD4
:2045100016F09AFA069800F0FF0028709DF81900069F6870C7F30140E8709DF80E30AB7060
:204530002978FF290BD0BDF80C00FE2907D04FF6FF71814204D1304611F0AAF800E0102092
:20455000E8809DF80A002871BDF808702F819DF806306B71BDF804206A810DE09DF81800C9
:2045700028709DF81930FB75149A7A7615993976304611F08DF8B8832978E068FF2936D0FC
:20459000FE292ED07E2926D07C291ED0782917D0702910D0A52908D0242904D00C99491CE4
:2045B000C9B20C9128E0129600E011961099491CC9B2109120E00B99491CC9B20B911BE057
:2045D0000A99491CC9B20A9116E009990E96491CC9B2099110E008990D96491CC9B208914A
:2045F0000AE00799B046491CC9B2079104E009F101070F965FFA87F9761CF6B2E578B542C1
:2046100000F34081109F002F3DD10C9F002F38D10798022835DA0B98022832DA089802288C
:204630002FDA4D452BD00B9FC7B9079FA7B90A9F0998074325D015F06BFC854219DCB9F149
:20465000000F14D094F83200FE2115F0E3F9E5780120DDF83C8017E0012015E0079860B9C5
:20467000B9F1000F07D115F053FC854201DC06200AE0032008E00220EBE7022004E01498E0
:2046900002E0042000E005200028A07000F0E380401E66D0401E00F0C680401E23D0401E9D
:2046B00000F0B480401E03D0401E00F0AE8033E11198FF2804BF1298119084F8330094F8EC
:2046D00033200C2784F831205019401E90FBF5F16943401A84F8320012FB07A0808BE08666
:2046F00007F018FEB3E015F013FC05460C2084F83C5015FB00A0817E84F83D10C07E84F845
:204710003E000BF08DFAE2782D1895FBF2F050432D1AE8B284F83200401C90FBF2F1514338
:20473000401A84F831007C2014F082FCFF2810D17E2014F07DFCFF280BD1159814F078FCF9
:20475000FF2806D1782014F073FCFF2808BF94F8310084F833000C2110FB01A0808BE0869C
:204770008AE00E9F08F1010090FBF5F184F832806943FF2FA0EB0100C1B284F8311013D1FF
:204790000D98FF2806D10C200D9111FB00A006E0AC3100200146880000EBC100504484F882
:2047B0003310808BE086B7E03A46D0B2910084F8330001EBC2015144898B1729E18640F22B
:2047D000AB80C91F01AA89B20DF0D6FE9DF80F00C0083CD314980090BDF81220E18E94F866
:2047F00033000323891AC91F01AA89B208F07CFE002840F09180BDF81010002900F08C800A
:204810009DF8140013F03CF886E0FEE7149EB54221DD30460CF0E8F96178E578761CF6B2F3
:2048300001436170F3E708F1010084F8328090FBF5F16943401A84F831005FFA88F00CF060
:20485000D3F96070FE215FFA88F015F0E3F8149802F0C6FA60E014986D1E0C2284F831002C
:20487000014684F8325011FB02A184F83300898BE1867E2115F0CEF894F83200FE2115F0BE
:20489000C9F849E00C2116FB01A706AA0423710317F03CFA069907F11605080EB0F1960BA6
:2048B00008D1C1F38540C1F3014141EA800102293FF454AE149903AA304616F0BDF802AA5D
:2048D0003046012116F0B8F83046022101AA16F0B3F8DDF818C00CF0FF010CF0FF00FF29B9
:2048F00009D0FE2907D07E2905D07C2903D0782918BF702909D1139F3FB9CCF38541032997
:2049100008BFBBF1000F3FF400AE30460CF06CF9002860703FF4E1AD17B0BDE8F08F7047F2
:204930002DE9F04F0F46780689B027D5DFF8F8231078002117F0F6FE04001FD0DFF8EC03BB
:2049500001688847054617F017F86168884204BF40F2014017F0A2FE00202072201D0CF053
:20497000F1FCDFF8CC130A6828469047204614F09FF9FF223C21204617F0A8FEB80604D5A3
:2049900008F0B1FD87F02000CAE1F8070CD516F0F3FF30B100218160DFF89803006800B1D9
:2049B000804787F00100BBE1380704D509F00BF887F00800B4E1F8060FD50021002200239C
:2049D0000691059204910393029101920091022017F060FE87F01000A2E1B8070FD5002162
:2049F0000023069105910491039302910191009101223C2017F04EFE87F0020090E179073A
:204A10004FF01E08CC4EDFF834A340F1CF80CC480022002108920791007817F083FE044606
:204A3000C8488178FF2904BF002015F04DFBA07A16F0C6FD05469AF8000095F82E910028D1
:204A500005F5947B69D0606D807A022818BF032807D130680D3017F019FE10B93068C11D07
:204A700007915946484617F00DFEA0B3606D807C3368002818BF012804D11946584617F097
:204A9000FDFD04E05A464946184617F09BFEFF2843D018FB00F83068404406225946C01DF6
:204AB00016F0F2FD306810F80810404400F1010BC01D41F0020908900622616DC87A00F0DF
:204AD000010085F82E01606D00F10C0105F5947016F0DAFD21E05946484617F0CBFDE0B1E5
:204AF00030685A46494617F06DFEFF2815D018FB00F8306840440D3017F0C8FD58B9306888
:204B100040440D3017F0C2FD002801BF30684044417F012901D149F0020905F12C004B4647
:204B3000017806914289120905920122698C0491C0880899029140080390CDF800B00798C0
:204B500001900020A97917F0A5FDD5F89C017E498842A8790CBF0021012117F087FD7B4950
:204B7000AB790A6830204343134401225A70AB790C68434323449A70AB790C684343234461
:204B9000DA700C68AA79231D424301249C54AA79096810FB02F00844002141710122A97955
:204BB000072004F026FD87F00400B9E038060FD500210023069105910491039302910191B0
:204BD000009101223B2017F065FD87F08000A7E0F8045DD55E4930680C680D3017F056FD57
:204BF000002844D13068C11D0D3017F03BFD3EE0606D4178480704F13E0526D52878022886
:204C10001EBF03286878012830D16978306804F1380217F0D7FD8146B9F1FF0F15D03068F3
:204C300018FB09F948440D3017F030FD68B930684844C11D0D3017F015FD30684844C11DD7
:204C5000062204F1380016F01FFD2878022818BF03280BD130680D3017F018FD30B93068B3
:204C7000C11D062204F1300016F00EFD2468002CBED13848DAF8042000784FF4805113F09C
:204C900079FB10B18E2017F0E9FC87F4805047E0B80505D516F06CFF2F4901200860FEE7D5
:204CB000780504D50CF037FF87F4806038E0780405D5812017F0D2FC87F4804030E0B90415
:204CD0002DD5264C206810B1002015F0FDF94FF0FF3020600020224C0FF030FD216851F872
:204CF000202F684690471F494A6B086BC96A24681D4B019200900293ADF810106B461B4A86
:204D10001B491C4803921C4A079225681B4AA8471B49086005F0F2FA87F4005000E00020CE
:204D300009B0BDE8F08F00BFD50F00204C30002050300020480F0020680F0020880E0020C3
:204D5000D70F0020780E00204DE50110544800204C0F0020C70F00207C052043380F0020DC
:204D7000200F00200C32002069B9010079B9010010360020280800201EFB0080EC0A0020BB
:204D90001C0F00202DE9F84F0546DFF80804DFF808640278002A84B048D0052A56D0062A75
:204DB00058D0072A18BF082A00F0D1800A2A00F0C381112A40F0E481DFF8E033187800216D
:204DD00017F0B0FC04001EBF606D407810F00C0F2CD0216DC0064CBF886CC86E0622016879
:204DF00001F10805A91C684616F04EFC287800F00F0105291AD16946C0F3801017F042FCF1
:204E1000002813D03168684617F038FC0546316804F1380017F032FC85420DD0606D417885
:204E3000C80604D440F2014017F038FCAEE1607B40F002006073A9E133681E204543581943
:204E500006226946C01D16F01FFC9FE1012017F001FC9BE1DFF84853286817F0F7FB04004D
:204E7000F7D020790328F4D1207A00F00F01072938D1DFF8300300684169497A4A1E114265
:204E90005ED0617A04F10A035A5C02F03F02252A56DBA17A8A09012A52D111F03F0F4FD024
:204EB000007C16F08DFBE17ACA074CBF04F1110204F10B028B0748BF921D0B0748BF921C88
:204ED000C90648BFD21C1621127852094A43B6498B180A31EB608A5A428699898186DA89F5
:204EF000C2862DE000F00F00082829D1A17A880926D129B3AB480168087C16F061FBE17A08
:204F1000074688071CD5062201F001015143601800F10C01684616F0B7FB207AC009FF289F
:204F30000ED0694617F0AEFB50B1306800F10D01684617F087FB18B90521384617F0D2FB0C
:204F50002079032802D0002015F0BEF814E1DFF85C9299F802000024FF2821D016F030FB16
:204F7000804608F16C07786817F070FB029029460279032A01D0080012D00298826813782A
:204F90008DF8003003F0030001909DF80000830604D50124019820B97868EEE00800F9D0B8
:204FB000F4E0557802F1020A2CB31AF8010B804A13680390302098F806E003F10A0C10FB91
:204FD0000EFE01230CF80E30002998F806E0136810FB0EFE9E44039B03F01F038EF81C30B7
:204FF00098F80630126810FB03F01044039AC2F3811242771BD10198032808F2171B1BD0AA
:20501000B5B1387868B108F1F400017801290FD1604A1178072904D0082904BFC078012855
:2050300006D13D2101208BF801108BF80000ADE060490A78012AFAD098F8940090B32D1F93
:20505000EDB29DF8001053462A4640460FF052F800281EBF58490878002809D101203D217D
:205070008BF800008BF80110306817F0E7FA8DE0524801688847064698F80610D9F8042063
:205090004FF4D07041435018002280F8412108F59E700168807949080FF08CFB48490A684E
:2050B000304690470298002181600198032819D04448416909788A0709D541690878C10732
:2050D0004CBFE81C28461AF80000387201E0812139722A460198C3B299F80200514607F0BA
:2050F00015FB21E09AF800001CB11B2804BF022D01251C2803D234490B5C9D4206D08BF8A0
:2051100002000721404617F0E5FA0AE02148017808295146404602D116F0CCFE01E000F05B
:2051300099FC504611F09CFF786817F083FA0299404617F07BFA29E0244C207830B3244D32
:20515000286817F083FA08B3017903291ED1017A8A0611D5807AE178C0F38112914202BFBD
:20517000217900F01F00814206D1A078002801BF607800280121A170286817F05BFA05E0D8
:20519000002014F0A1FF862017F0C4FA05B0BDE8F08F00BFC80F0020680F0020D50F0020A6
:2051B000BC0A0020540F0020E0070020780E002054480020D20F0020DD4800204C3000202B
:2051D0005030002080EC01000CED0100E4470020AC0C00202DE9F84F0446002000900CB979
:2051F00014F072FF04F1500941F62300D9F800603080002102207180822270733273694692
:2052100020460CF021FB08B9072000E2B06020610021207EB073F173D9F80400017D0229E1
:2052300004BF002014F050FFD9F80400007D012802D10020307405E083280CBF0620022073
:2052500030742020707404F1240BD9F80400DFF8C4834178480615D5D8F83C004169086848
:205270009BF80510401C01EB4101405A7082607DC10604D5E07F40F04000E07702E040F0AB
:205290004000607506F158050020287104F130009BF81A10890001F004012971B0664FF08C
:2052B0001E0A607DC10645D506F130003062D9F8040041788A060BD5617D01F0FE0161759D
:2052D000407810F0030F03D1E07F00F0FE00E077607D17F0A7F9A075421C307CC0F38001A5
:2052F000002392B200F0030017F098F9A0831E23A08BE27D00F5967100F59B7012FB01F2C2
:2053100090FBF3F30A320AFB13006283C0B208B1C0F11E008018A183608380B2B168A63019
:2053300001EB800131660220E871E17F41F00801E17713E000273762607D40F00100607556
:20535000D9F804104A78510744BF40F002006075607D17F067F9A0753766EF71A17D207D23
:2053700061F3050006F18801207508700322607D48708A7006F128079BF81A00800000F040
:20539000040040F0030088709BF81B20D20002F00802104388700020C870C6F89000BBF88E
:2053B0001C00C0F30B00ABF81C00D9F80410CA7D40EA0230ABF81C000022617D01F0FE010D
:2053D000204617F027F940F61200B0830021F183D8F83400008880007062D8F834000088B6
:2053F00000281ABF072139703870617DC8064CBF00200220787041F62401E07D78803981D7
:2054100000207881618BB06800EB8100B0630221822038757975002194F8210000F03F0083
:20543000B875F975D9F80400807D012818BF022805D100F07F00401E3876797606E08328F4
:205450000CBF06200220387620207876D8F83C00416908689BF80510401C01EB4101405A5B
:2054700078830021F166D9F80400417811F0030F1FD017F0CBF8F066D8F818000078C107D1
:20549000D8F8181009784CBF1F200F208A07D8F81810097848BF40F020004A07D8F8181060
:2054B000097848BF40F040000A0748BF40F08000287600206876D9F80410574A897C01F004
:2054D000030169769BF81A00800000F00400014369769BF81B00C00000F0080040F01000EF
:2054F00001436976107830B141F040016976287E00F0FE002876E07F17F094F884F82000FF
:20551000204617F07FF8E07FC1063BD5D9F8040094F820204178521C88074EBFD21E9BF87A
:205530001F001218387EC0F380010023D2B200F0030017F073F8ABF80000BBF8000000F5D1
:205550009671C1F11E0291FBFAF10AFB012A8BF804A0D9F8042051788A074CBF00214FF4D6
:205570009B710818ABF80000ABF80200BBF800109BF80420B06B5218A63200EB820070678C
:20559000022001E000207067E87604F13000C6F8800006F18400D9F804104A78510706D5EB
:2055B00004F138020260687E40F0200006E01B490A6851680160687E00F0DF006876A17F8B
:2055D00094F8200060F30501A17740F60B00B8840021F984D8F83800008880007065D8F8CE
:2055F0003800008800281ABF0721297028700221697094F845006880D9F80410487881079F
:2056100044BF0120688000980AF0F2FB0020BDE8F28F00BF80EC0100880E00206C0F00202C
:205630002DE9F04FADF1440D16F0E8FF12F0B6F8061C00F0728115F047FD8446BA4800213E
:205650003C3030F80C7F002F40F063814FF6F87202804660B34D29700027876070686860BA
:20567000604615F0CEFE05F14C042046394616F0C1FF05F17C06314605F15800AC600CF06D
:2056900051FB3146E86005F164000CF04BFB2861E86870B938460090019040F2F7110290E6
:2056B00003220390A5A30490A0A00AF0D7F816F09DFFD54CD54904F131003A4615230090EE
:2056D000102005F0CDFCD24910203A46022305F0C7FC4FF480600121224602F003FC40F254
:2056F00002400121621C02F0FDFB40F203400121A21C02F0F7FB40F206400121E21C02F00B
:20571000F1FB40F211400121221D02F0EBFB40F20D400121621D02F0E5FB40F21240012139
:20573000A21D02F0DFFB40F20C400121E21D02F0D9FB04F108024FF48360012102F0D2FB63
:2057500004F1090240F20740012102F0CBFB04F10A0240F21440012102F0C4FB04F10B028A
:2057700040F21540012102F0BDFBAA4910204FF0FF3205F075FCA84910204FF0FF3205F047
:205790006FFC1026DFF89492A548A64A0096132349460190304605F063FCB046A348A24EF7
:2057B000CDF8008003234946019006F10802404605F056FC0FF2B81BBA46C1B20320009086
:2057D000012201915B46CDF808A065A0CDF80CA0C021CDF810A00AF041F89648944FCDF871
:2057F000008049460523019007F11402404605F037FC4FF00509C0B2CDF80090BD21019092
:205810000122CDF808A05B46CDF80CA065A0CDF810A00AF023F805F13C0070600FF2941B95
:205830000090D021CDF804A00122CDF808A05B46CDF80CA04AA0CDF810A00AF00FF805F176
:20585000440078600090CE21CDF804A00122CDF808A05B46CDF80CA052A0CDF810A009F032
:20587000FDFF06A8514628220EF07BFE012764A371480597006800931090F32101973A46CB
:20589000CDF808A036A0CDF80CA056A3CDF810A009F0E4FF06A8007810AA49463070504655
:2058B000778007F0C5F9042105AA384607F0C0F9624905F13402404605F0D2FB13F0FAFD11
:2058D0005F490246404605F0CBFB13F0F3FD5D490246404605F0C4FB5B494046FB2240F6EF
:2058F000480305F0BDFB5949404605F0B9FB4FF6F870401D12F012FB13F0DCFD0C345449FD
:20591000CDF800A0034604224046019405F0A8FB05E0491C0629FFF494AE16F009FB11B077
:20593000BDE8F08F201B002054300020626C655F637573746F6D2E6300C046C04572726F18
:205950007220696E697469616C697A696E6720626F617264204C45442070696E7300C0469D
:205970006C65645F736572766963652E6300C04652656769737465726564207365727669A4
:2059900063652C20256420617474726962757465732C20737461747573203078253032783C
:2059B00000C046C074656D705F736572766963652E6300C052656769737465726564206329
:2059D000616C6C6261636B7320746F206170706C69636174696F6E2E2053747275637420D0
:2059F000257000C0536574506172616D65746572203A202573206C656E3A20256400C0461B
:205A10004C45443100C046C0E4300020055B01001D860100B9A601000D8C0100D19F010006
:205A3000DCEA0100342B00200C34002044E801004831002094E401007CE801006DA70100F7
:205A5000D96C02102D6D02100D520210397F0110FDCA00002DE9F043044685B0084611F813
:205A700001CBDFF8A483DFF8A4333022BCF1030F4FF0000904F5A47704F1660504F1F406E2
:205A900000F0C380BCF1070F00F08081BCF10F0F0CD0BCF1110F00F02481BCF11A0F00F040
:205AB0003681BCF11B0F00F061818EE1707A820703D40F2184F8191159E008784A7800EB81
:205AD00002233B808878CA7800EB02237B8008794A7900EB0223BB808879CA7900EB0223A6
:205AF000FB80087A38724A7A887A02EB00237B81C87A0A7B00EB0223BB81487B8A7B00EB57
:205B10000223FB81C87B0A7C00EB02233B82487C8A7C00EB02237B82C87C0A7D00EB02238C
:205B3000BB82487D897D00EB0122B948FA8201788A0658BF4FF01A0913D504F5AA700490B1
:205B500079890391387A029021890191F8880090BB887A883988204616F044FDC8B14FF0A4
:205B70001E09707A410706D40F2084F81901204616F034FDF0E04A460F21204616F02AFD5D
:205B9000F8880090BB887A88A179484611F014FAE9E004F1860079888180BA88C2800222FB
:205BB000F98801810270A0F80290A18EC91DE983628E8188B1EB520F02BFC188A28E9142B2
:205BD00002BF0089E18EB0EB111F1CD0287C012804BF687C0F2809D0687D00281CBF687CF5
:205BF0001A2803D00F21A976FE2176E0FC21204616F070FDF8880090BB887A883988A07997
:205C100016F0E4FCAFE0102167E0707AC20709D431781A200129707002D1FF220D213BE0CD
:205C30000D215AE085F8009085F8069001233371082204F1B00016F0C5FC0146022204F10E
:205C5000B80016F0BFFC04F1A80801460822404616F0B8FC07460821404616F0AFFC04F1C3
:205C70009C0804223946404616F0ACFC0421404616F0A4FC04F1A00016F09CFC04F1980086
:205C900016F094FC6348018841F0800101803078012805D1FF220421204616F083FC62E0DD
:205CB0006E7C0F2E18BF142E04D00E2E1CBF0C2E1A2E11D12F7C204616F070FC0421204637
:205CD00016F008FD012F05D11A2EAE7614BFFD21FB2102E0314600E00421204616F0FAFC6A
:205CF00041E00E783E761A2E497879766DD11868A679811D564301F806901968A37912FBF4
:205D100003F20A4482F80990A179787E56E0A77918680E785743074406F01F0117F8250F73
:205D3000B60938B17878F040C00703D594F89601042805D120221A21204616F04BFC12E0A5
:205D5000F970A179186812FB01F28118204681F82760002109F0FCFD28B998F800004FF46A
:205D700080410AF0EBFC4FF0010932E0A179186851430144888908B981F80690A179186828
:205D900012FB01F2811881F80990ECE709780F2917D01A2919D1A1791868514301441A20FB
:205DB00081F80690A1791B6812FB01F2991881F80990F17A01F0FB01F172A1790DF034FE60
:205DD000D1E7717A01F0FD0171720146204616F0E1FB687C1A2812D1A87C17281CBF102830
:205DF000FC280CD12E7C204616F0D8FB012E03BF1A20A876FB211A21204616F06BFC4846A8
:205E100005B0BDE8F08300BFC70F002054480020200E00209C0F00202DE9FE4F0422FF2172
:205E300001A815F03BFCDFF8541388780024FF2800F0A28115F0C4FB054605F2171001782B
:205E5000012908BF417800F0EB8005F1740005F59276817B022904BF05F174018C7395F8E0
:205E70009201022805F1740008BF85F89241017F022904BF05F174010C77F18911B1307B91
:205E90000AF05CFC6889BE4F2881FB7997F80AC03A7BF97A787B9C4494448C4405F58D7989
:205EB0000CEB0008B9F804E0B9F800C00EF1010EC444A9F804E0A9F800C0B9F802E097F8AF
:205ED0000AC0F444A9F802C0D6F800C0BCF1000F29D0DFF8B0E2DEF800E00EF10E0ACDF80F
:205EF00000A04FF01C0A95F806B01AFB0BFADDF800B01BF80AA03CF81AB0C3442CF81AB0FB
:205F10000EF10E0A95F806B04FF01C0E1EFB0BFB1AF80BA00CEB4A0C97F80AA0BCF84AE06E
:205F3000F244ACF84AA0002B08BF0029DFF858A203D1002A08BF00282BD02989E8892C74F6
:205F50004118287FA981012804BF688CE883A9790122072003F04DFBA346787878B10121F1
:205F700005F1740229779078002802BF05F17401887B002803D1087F08B9688CE883307D56
:205F9000002855D0022804BFF87A00284CD134754EE0A979072003F02CFBEC83B87A40B134
:205FB000297F2C7401294FF0010B27D1688CE88324E0B9F80600401CA9F806004FF0020BB3
:205FD000287CD8B1DAF80010AB7995F82EC001F114026969490040F6C4105B0110FB0C1152
:205FF00001F5F661D150A879DAF8001001EB4010C17C01F0F00141F00401C174A889298977
:20601000814206D08842A8D2081A41F2AB029042A3DA287C08B1052901D0082100E03E217E
:20603000284616F05FFBA7E0787A08B102213175F87BC1070DD529683869C86000F590701B
:20605000C860AA79DAF8000000F1140152018C5013E0DAF80010AB7901F114025B01D05859
:2060700030614848AB7901681C2001F1080243432968D058C860EC832C77444A50690078F2
:20609000810702D5B87B802800D1812005F174063070284615F02AFF28460BF0AFF902285D
:2060B0001BD1F079022805DB01AA3949284610F02FF80446284616F069FA01285CD0200019
:2060D0000DD0224601A9284610F0ECFB38B928460BF094F9012802D14EE001284CD00121F4
:2060F000284616F04FFA284616F048FAFDF714FD012841D028460FF057F902F057FA254F6A
:20611000B988386810B1AA79914203D04FF6FD70814231D12049087B15F066FC04002BD03B
:2061300084F800B0A8791D4960800A68A879115C217105F5C9721079607196F90010A171EA
:20615000A4F80880B9F80200608115F015FC050005D1FF204FF0FF312073216109E028785A
:20617000207316F007FA0146A86816F0FFF980082061204639688847BDE8F78F780E002070
:20619000980C0020980E00209C0E002080EC01005C350020800E0020203600206848002089
:2061B000D1480278112A00D070472DE9F84FCF4A1078002116F0B6FA04000AD1002013F0A3
:2061D00083FF002013F080FFBDE8F24FFF2016F0A1BA04F14C0999F8000008B90121E17214
:2061F000401CD9F8083089F800005978CA062CD4E27DD9F80460C7B2974227D25A7AB17B29
:20621000277E0120A1F1250300FA03F3A7F125018840184322EA000000F0070011F0DEFF3C
:206230002530B073A18BB06800EB8100B060607DC1060AD5628B99F80010A08B00FB1121AD
:20625000B068A63100EB810030664BE104F1280706F1900806F173054FF0000A50D1A17F65
:206270006975E07FA875D9F808205278930710D5E27FD30604D5C91E697500F0EF00A8759E
:20629000C6F874A085F800A00022A97D01F0FE0123E1910608D4F88B00B1F87E2876F88B85
:2062B00000B1386AC8F80000D9F808004178CA070DD5F88B00281CBF386A002807D0C8F88F
:2062D0000000B97EF88B814238BF08462876E07FC1060CD5B06B397800EB8100B063A18CCF
:2062F000A63100EB810070670220287003E0C6F874A085F800A00022E17F01F0FC01ECE0AC
:20631000CB071ED5687D811E697501F03F01A87D00F0F700A8758207697504D4891D697529
:2063300040F00200A875A87D410605D56A7D511E697500F0BF00A875C8F800A085F818A023
:20635000D0E0801AC0B20090880740F183800098012806F1400B3FD1B06BA18C00EB810057
:20637000B063A07F00F03F00A0776875E17FA975D9F8082053785A0704D5801F687501F0CF
:20639000FD01A9750023687DF97E00F03F0042189BF80000521CC0F3800192B200F003005D
:2063B00016F03CF900F59B70A0841E21A08C90FBF1F18AB2A97D01F0FE01204616F02AF9B5
:2063D00085F800A0F88B00B1F87E2876F88B00B1386AC8F8000085E00228B06BA18C00EBF0
:2063F0008100B06326D1E07FC10706D5687D811F6975A87D00F0FE00A8750023687DF97EEE
:2064100000F03F0042189BF80000521CC0F3800192B200F0030016F001F900F59B70A08453
:206430000022A97D01F0FE01204616F0F3F8787FABF81A00797F0098491C081AC0B2012857
:206450001CDDA28CB16BA63201EB820171670221297014E0B06BA18C00EB8100B063797F5B
:206470000098081AE17FCA06C0B207D5A28CB16BA63201EB820171670221297090B3D8F89C
:20649000003097F81BC0E27FA17F6344C8F8003022F00108D9F808205278530748BF28F0E3
:2064B0000208920748BF28F00808012807D1387F2876C6F874A028F0100885F800A001F094
:2064D000C006404616F0AEF800F03F003043687585F81680002208F0FC012046BDE8F84FB9
:2064F00016F098B8BDE8F18FC80F0020D50F00202DE9F8439D4C9E499E4E20700A2200202D
:2065100008600D239C4840F2132102704380818084B09A4A9A48106037789A480770FF2FB3
:206530007178417008BFFF29B2788270F378C370357905717679467114D1FF2A08BFFF2B3F
:2065500010D1FF2D08BFFF2E0CD18F490A7802704B7843708A788270CB78C3700A790271AB
:206570004979417189490278894D8A4E8A4F0A7043784B7082788A70C378CB7002790A7174
:206590004079864A4871FF2028706870A870E87028716871002082490880F06B81494078E8
:2065B00008708149F06B0078087013887F4880490380F06BC06C08607E49F06B90F83C00BB
:2065D00008707D49F06B90F83D000870F06B406901797A484A1E0270F06B7949C0783870BE
:2065F000F06B8069086008B913F06EFDF06B7549C069086008B913F067FDF06B416D72481B
:206610000C2215F041F815F0ADFFF06B6F49006A086008B913F058FDF06BDFF8B481406A3E
:20663000C8F8000008B913F04FFDF06B6949806A086008B913F048FDF06B6749C06D0028B2
:206650003CD001220A75F06BC06D02681378C3F3400028B1C3F3C00000280CBF0120022084
:20667000487500208860C8600861F06BC06D426890780870F06BC06D4268D0784870F06B75
:20669000C06D426813788B70F06BC06D42685078C870F06BC06D426810790871F06BC06D9F
:2066B000426850794871F06BC06D426890798871F06BC06D4268D079C87101E000220A7534
:2066D00001F0E8FA07280AD107F092FD20784FF480410AF033F8002013F0F6FC43E03F48C7
:2066F0000168884781460EF0A3FCD8F8000001688847684615F088F9D8F8002004208DF819
:206710000000694652F8043F002098473449086010F090FEF068334A01883878324B0143EC
:2067300011804846196888470C21304815F0E2FB284615F013FF15F00DFF2D4800214FF6E2
:20675000FF7201608280F06B90F858102948006815F0E2F80121FF2015F0C6FB20784FF470
:20677000005109F0EBFF05B0BDE8F083C70F0020380F0020D04F0050700E00203C0F002033
:20679000B63F0050400E0020E8120050500E0020480E002080EC0100C40F0020B236002090
:2067B0009E0F0020C60F0020D40F0020CA4800205C480020DB480020DC480020CB0F00208D
:2067D000200F0020240F0020F0470020280F00202C0F0020300F00204C4700204C30002050
:2067F00060480020A00F002050300020FC0D0020800E0020704800202DE9F84F05004AD027
:20681000AA480078092818BF0A2804D00B281CBF0C280D2801D1212046E1A878002115F0F9
:2068300081FF040008BF4220F6D0A14EA9789F4A3170107810B9A8789E49087004F1480727
:20685000F868417801F01201022902BF786900280C2012D0607AF0B1A07B012804D1B5F8C7
:20687000030008B1812816DA6878402813DA204615F06CFEB86808B9072015E1BD612878ED
:2068900001281BD1A07B00281CBF0128042815D18948007808B9122006E188494A78824200
:2068B00008BF0920F8D004F1220004F13801427F802007F00DFC08B10B20F5E0687808B910
:2068D0001120F1E02878DFF8F881DFF8F8B1DFF8F8A1012840F09380207A002101282173E2
:2068F0004FF00A0911D19AF80000402112F064FCB5F8030009FB00F1402015F023FE0100D3
:20691000DFD1B96968794871CDE001202072E17261730AF0BBFC6060DBF8000080476B4AB4
:206930000146106802E06268426000680028FAD10846D8F8001088476168654848610021A2
:20695000307815F0D1FA31780122112002F051FEF8684178C80605D5204601F03FFF01001A
:206970000BD0A1E0002060840CF010FD84F821002046FEF72FFC0100F3D1F8684178C807CE
:206990001CD504F14206B18800291CBF3868002814D032788A4211D20F2015F0CFFD68B15E
:2069B000F86801788DF80010B088ADF801000F2031788DF80310694615F0BCFD3B4E30786D
